{
  "contractName": "SocialChangeGame",
  "abi": [
    {
      "inputs": [
        {
          "internalType": "address",
          "name": "_dao",
          "type": "address"
        }
      ],
      "stateMutability": "nonpayable",
      "type": "constructor"
    },
    {
      "anonymous": false,
      "inputs": [
        {
          "indexed": false,
          "internalType": "uint256",
          "name": "_event",
          "type": "uint256"
        },
        {
          "indexed": false,
          "internalType": "address",
          "name": "_winner",
          "type": "address"
        },
        {
          "indexed": false,
          "internalType": "uint256",
          "name": "_position",
          "type": "uint256"
        }
      ],
      "name": "Winner",
      "type": "event"
    },
    {
      "inputs": [],
      "name": "owner",
      "outputs": [
        {
          "internalType": "address",
          "name": "",
          "type": "address"
        }
      ],
      "stateMutability": "view",
      "type": "function",
      "constant": true
    },
    {
      "inputs": [],
      "name": "sort",
      "outputs": [],
      "stateMutability": "nonpayable",
      "type": "function"
    },
    {
      "inputs": [
        {
          "internalType": "uint256",
          "name": "event_",
          "type": "uint256"
        }
      ],
      "name": "claim",
      "outputs": [],
      "stateMutability": "nonpayable",
      "type": "function"
    },
    {
      "inputs": [],
      "name": "join",
      "outputs": [],
      "stateMutability": "payable",
      "type": "function",
      "payable": true
    }
  ],
  "bytecode": "0x608060405234801561001057600080fd5b50604051610bf2380380610bf28339818101604052602081101561003357600080fd5b81019080805190602001909291905050506001600281905550336000806101000a81548173ffffffffffffffffffffffffffffffffffffffff021916908373ffffffffffffffffffffffffffffffffffffffff16021790555080600160006101000a81548173ffffffffffffffffffffffffffffffffffffffff021916908373ffffffffffffffffffffffffffffffffffffffff16021790555050610b15806100dd6000396000f3fe60806040526004361061003f5760003560e01c8063379607f5146100445780638cdc86a61461007f5780638da5cb5b14610096578063b688a363146100ed575b600080fd5b34801561005057600080fd5b5061007d6004803603602081101561006757600080fd5b81019080803590602001909291905050506100f7565b005b34801561008b57600080fd5b50610094610310565b005b3480156100a257600080fd5b506100ab610591565b604051808273ffffffffffffffffffffffffffffffffffffffff1673ffffffffffffffffffffffffffffffffffffffff16815260200191505060405180910390f35b6100f56105b6565b005b60011515600660003373ffffffffffffffffffffffffffffffffffffffff1673ffffffffffffffffffffffffffffffffffffffff168152602001908152602001600020600083815260200190815260200160002060009054906101000a900460ff16151514156101cf576040517f08c379a000000000000000000000000000000000000000000000000000000000815260040180806020018281038252600f8152602001807f616c726561647920636c61696d6564000000000000000000000000000000000081525060200191505060405180910390fd5b60008090505b600460008381526020019081526020016000205060038110156102a1573373ffffffffffffffffffffffffffffffffffffffff1660056000848152602001908152602001600020600060046000868152602001908152602001600020846003811061023c57fe5b0154815260200190815260200160002060009054906101000a900473ffffffffffffffffffffffffffffffffffffffff1673ffffffffffffffffffffffffffffffffffffffff1614156102945761029333826108b2565b5b80806001019150506101d5565b506040517f08c379a00000000000000000000000000000000000000000000000000000000081526004018080602001828103825260118152602001807f6e6f7468696e6720666f7220636c61696d00000000000000000000000000000081525060200191505060405180910390fd5b6000809054906101000a900473ffffffffffffffffffffffffffffffffffffffff1673ffffffffffffffffffffffffffffffffffffffff163373ffffffffffffffffffffffffffffffffffffffff161461036957600080fd5b6103e760036000600254815260200190815260200160002054146103f5576040517f08c379a00000000000000000000000000000000000000000000000000000000081526004018080602001828103825260108152602001807f666577207061727469636970616e74730000000000000000000000000000000081525060200191505060405180910390fd5b60008090505b6003811015610557576103e84442836040516020018084815260200183815260200182815260200193505050506040516020818303038152906040528051906020012060001c8161044857fe5b06600460006002548152602001908152602001600020826003811061046957fe5b01819055507f1c2ae1f7e99dbbbfe25aac964f3889ea68259d88b74709f53037a6fb930bb02a600254600560006002548152602001908152602001600020600060046000600254815260200190815260200160002085600381106104c957fe5b0154815260200190815260200160002060009054906101000a900473ffffffffffffffffffffffffffffffffffffffff1683604051808481526020018373ffffffffffffffffffffffffffffffffffffffff1673ffffffffffffffffffffffffffffffffffffffff168152602001828152602001935050505060405180910390a180806001019150506103fb565b50610583600160009054906101000a900473ffffffffffffffffffffffffffffffffffffffff16610a32565b600160025401600281905550565b6000809054906101000a900473ffffffffffffffffffffffffffffffffffffffff1681565b68056bc75e2d631000003414610634576040517f08c379a000000000000000000000000000000000000000000000000000000000815260040180806020018281038252600d8152602001807f73686f756c64206265203130300000000000000000000000000000000000000081525060200191505060405180910390fd5b60001515600760003373ffffffffffffffffffffffffffffffffffffffff1673ffffffffffffffffffffffffffffffffffffffff1681526020019081526020016000206000600254815260200190815260200160002060009054906101000a900460ff1615151461070d576040517f08c379a000000000000000000000000000000000000000000000000000000000815260040180806020018281038252600d8152602001807f6f6e6c79206f6e652074696d650000000000000000000000000000000000000081525060200191505060405180910390fd5b6103e76003600060025481526020019081526020016000205410610799576040517f08c379a000000000000000000000000000000000000000000000000000000000815260040180806020018281038252600b8152602001807f686974206d6178696d756d00000000000000000000000000000000000000000081525060200191505060405180910390fd5b33600560006002548152602001908152602001600020600060036000600254815260200190815260200160002054815260200190815260200160002060006101000a81548173ffffffffffffffffffffffffffffffffffffffff021916908373ffffffffffffffffffffffffffffffffffffffff16021790555060016003600060025481526020019081526020016000205401600360006002548152602001908152602001600020819055506001600760003373ffffffffffffffffffffffffffffffffffffffff1673ffffffffffffffffffffffffffffffffffffffff1681526020019081526020016000206000600254815260200190815260200160002060006101000a81548160ff021916908315150217905550565b600081141561090d578173ffffffffffffffffffffffffffffffffffffffff166108fc69043c33c19375648000009081150290604051600060405180830381858888f1935050505015801561090b573d6000803e3d6000fd5b505b6001811415610968578173ffffffffffffffffffffffffffffffffffffffff166108fc69021e19e0c9bab24000009081150290604051600060405180830381858888f19350505050158015610966573d6000803e3d6000fd5b505b60028114156109c3578173ffffffffffffffffffffffffffffffffffffffff166108fc69010f0cf064dd592000009081150290604051600060405180830381858888f193505050501580156109c1573d6000803e3d6000fd5b505b6001600660003373ffffffffffffffffffffffffffffffffffffffff1673ffffffffffffffffffffffffffffffffffffffff1681526020019081526020016000206000600254815260200190815260200160002060006101000a81548160ff0219169083151502179055505050565b6000809054906101000a900473ffffffffffffffffffffffffffffffffffffffff1673ffffffffffffffffffffffffffffffffffffffff163373ffffffffffffffffffffffffffffffffffffffff1614610a8b57600080fd5b8073ffffffffffffffffffffffffffffffffffffffff166108fc690dc3a8351f3d86a000009081150290604051600060405180830381858888f19350505050158015610adb573d6000803e3d6000fd5b505056fea2646970667358221220a2757a00c99ddf268c98d1a3d9e4cbeb9da764463ce185a1454f94883db4403464736f6c63430006000033",
  "source": "// SPDX-License-Identifier: GPL-3.0\r\n\r\n/*\r\n100 ether to enter;\r\nrequire 1000 participants\r\nwhen hit 1000 participants sort 3 winners randonly\r\n1st place 20% = 20,000 ONEs\r\n2nd place 10% = 10,000 ONEs\r\n3rd place 5% = 5,000 ONEs\r\nDAO fund 65% = 65,000 ONEs\r\n*/\r\n\r\npragma solidity >=0.6.0 <0.8.6;\r\n\r\ncontract SocialChangeGame {\r\n    // the deployer\r\n    address public owner;\r\n    // dao fund\r\n    address dao;\r\n    // actual event number\r\n    uint private _event;\r\n    // mapping totals in event\r\n    mapping(uint => uint) _totals;\r\n    // mapping for winners numbers\r\n    mapping(uint => uint[3]) winners;\r\n    // mapping for participants\r\n    mapping(uint => mapping(uint => address)) participants;\r\n    // mapping for claimed prizes\r\n    mapping(address => mapping(uint => bool)) claimed;\r\n    // mapping for joineds in events\r\n    mapping(address => mapping(uint => bool)) joined;\r\n    \r\n    event Winner(uint _event, address _winner, uint _position);\r\n    \r\n    constructor(address _dao) public {\r\n        _event = 1;\r\n        owner = msg.sender;\r\n        dao = _dao;\r\n    }\r\n    \r\n    modifier onlyOwner() {\r\n        require(msg.sender == owner);\r\n        _;\r\n    }\r\n    \r\n    function sort() public onlyOwner{\r\n        require(_totals[_event] == 999, \"few participants\");\r\n        // sort 3 winners\r\n        for(uint i = 0; i < 3; i++){\r\n            // prnd - sorted a number from 0 to 999\r\n            winners[_event][i] = uint(keccak256(abi.encodePacked(block.difficulty, block.timestamp, i))) % 1000;\r\n            // emit winer\r\n            emit Winner(_event, participants[_event][winners[_event][i]], i);\r\n        }\r\n        // transfer 65% for dao\r\n        _transfer(dao);\r\n        // update _event\r\n        _event = _event + 1;\r\n    }\r\n    \r\n    function claim(uint event_) public {\r\n        if(claimed[msg.sender][event_] == true){\r\n            // revert if already claimed\r\n            revert(\"already claimed\");\r\n        }\r\n        for(uint i = 0; i < winners[event_].length; i++){\r\n            // search for address in sort numbers\r\n            if(participants[event_][winners[event_][i]] == msg.sender){\r\n                // if sorted, call internal _withdraw\r\n                _withdraw(msg.sender, i);\r\n            }\r\n        }\r\n        // revert if not for claim\r\n        revert(\"nothing for claim\");\r\n    }\r\n    \r\n    function _withdraw(address _winner, uint _position) internal {\r\n        if(_position == 0){\r\n            // send prize for #1 sorted\r\n            payable(_winner).transfer(20000 ether);\r\n        }\r\n        if(_position == 1){\r\n            // send prize for #2 sorted\r\n            payable(_winner).transfer(10000 ether);\r\n        }\r\n        if(_position == 2){\r\n            // send prize for #3 sorted\r\n            payable(_winner).transfer(5000 ether);\r\n        }\r\n        // unviable double claim\r\n        claimed[msg.sender][_event] = true;\r\n    }\r\n    \r\n    function join() public payable {\r\n        // 100 ether to enter;\r\n        require(msg.value == 100 ether, \"should be 100\");\r\n        // only one time per event\r\n        require(joined[msg.sender][_event] == false, \"only one time\");\r\n        // only 1000 participants\r\n        require(_totals[_event] < 999, \"hit maximum\");\r\n        // add participant in event\r\n        participants[_event][_totals[_event]] = msg.sender;\r\n        // increment the totals\r\n        _totals[_event] = _totals[_event] + 1;\r\n        // set to true joined key\r\n        joined[msg.sender][_event] = true;\r\n    }\r\n    \r\n    function _transfer(address _dao) internal onlyOwner {\r\n        payable(_dao).transfer(65000 ether);\r\n    }\r\n}",
  "sourcePath": "C:/Users/V8/test/demo/contracts/SocialChangeGame.sol",
  "compiler": {
    "name": "solc",
    "version": "0.6.0+commit.26b70077.Emscripten.clang"
  },
  "schemaVersion": "3.4.1",
  "updatedAt": "2021-06-27T01:52:59.465Z",
  "networkType": "ethereum",
  "devdoc": {
    "methods": {}
  },
  "userdoc": {
    "methods": {}
  }
}